:100000000C945D000C9485000C9485000C94850084
:100010000C9485000C9485000C9485000C9485004C
:100020000C9485000C9485000C9485000C9485003C
:100030000C9485000C9485000C9485000C9485002C
:100040000C94FB000C9485000C9445010C948500E5
:100050000C9485000C9485000C9485000C9485000C
:100060000C9485000C9485000000000024002700FB
:100070002A0000000000250028002B0004040404CE
:100080000404040402020202020203030303030342
:10009000010204081020408001020408102001021F
:1000A00004081020000000080002010000030407FB
:1000B00000000000000000001E0311241FBECFEF4F
:1000C000D8E0DEBFCDBF11E0A0E0B1E0E0E4F7E0B2
:1000D00002C005900D92A431B107D9F721E0A4E147
:1000E000B1E001C01D92AB37B207E1F710E0CDE5FA
:1000F000D0E004C02197FE010E949803CC35D107BF
:10010000C9F70E94B0020C949E030C94000090E08A
:10011000FC01EC55FF4F2491FC01E057FF4F349157
:10012000FC01E458FF4FE491EE23C9F0222339F09B
:10013000233001F1A8F4213019F1223029F1F0E047
:10014000EE0FFF1FEE58FF4FA591B4918FB7F894B3
:10015000EC91611126C030953E233C938FBF0895EA
:100160002730A9F02830C9F0243049F78091800069
:100170008F7D03C0809180008F7780938000DFCFD8
:1001800084B58F7784BDDBCF84B58F7DFBCF809125
:10019000B0008F778093B000D2CF8091B0008F7D78
:1001A000F9CF3E2BDACFFC01828580FF12C0F89494
:1001B0008085918522852E7F2287789423853485BA
:1001C0008223932361E0892B09F460E085850C94F8
:1001D00087000895FC018285811105C05187408701
:1001E00085E0828705C08085918584179507B1F7E2
:1001F0000895089508951F920F920FB60F9211243B
:100200002F933F938F939F93AF93BF9380917701E9
:1002100090917801A0917901B0917A0130917601A5
:1002200023E0230F2D3758F50196A11DB11D209312
:1002300076018093770190937801A0937901B09330
:100240007A018091720190917301A0917401B09133
:1002500075010196A11DB11D8093720190937301E8
:10026000A0937401B0937501BF91AF919F918F914D
:100270003F912F910F900FBE0F901F90189526E879
:10028000230F0296A11DB11DD2CF1F920F920FB660
:100290000F9211249F92AF92BF92CF92DF92EF9272
:1002A000FF920F931F932F933F934F935F936F93FF
:1002B0007F938F939F93AF93BF93EF93FF93CF93CE
:1002C000DF931F92CDB7DEB78091C6008983898105
:1002D000E0916C01F0E0EE5DFE4F828780916C0151
:1002E0008F5F80936C018F7380936C0180916F019D
:1002F000811117C081E080936F0184E0C82E96E0E1
:10030000B92E25E0E22EDD24D39432E0A32E43E083
:10031000942E90916D0180916C0198131FC01092E2
:100320006F010F90DF91CF91FF91EF91BF91AF914E
:100330009F918F917F916F915F914F913F912F91FD
:100340001F910F91FF90EF90DF90CF90BF90AF90F3
:100350009F900F900FBE0F901F901895E0916D0128
:10036000F0E0EE5DFE4FF28480916D018F5F80932F
:100370006D018F7380936D01789480912201833099
:1003800009F480C000F5813009F45DC0823009F4C1
:1003900063C0B5E5FB12E1C0809129018F5F8093B6
:1003A000290180912901843061F4D09222011092B8
:1003B0002901809170019091710190932B0180939C
:1003C0002A01F894A6CF853009F471C008F463C0FF
:1003D0008630F9F680912701909128019F2990930A
:1003E0002801809327018091250190912601019792
:1003F000909326018093250100912A0110912B01F1
:100400000115110509F496C08091230190912401F2
:10041000D80114962D913C9115972817390708F0AB
:1004200058C0ED91FC910280F381E02DC80109953F
:10043000E0912A01F0912B018681978190932B0105
:1004400080932A01D9CF8F2D90E09093240180933F
:100450002301A09222019DCF80912301909124013C
:100460009F299093240180932301809123019091EF
:1004700024018535954519F0909222018ACF10927A
:10048000220187CF8F2D90E0909326018093250144
:10049000C09222017ECF80912501909126019F2953
:1004A0009093260180932501E092220172CF8F2D37
:1004B00090E09093280180932701809125019091ED
:1004C000260101979093260180932501B092220185
:1004D00060CFF80182819381209123013091240122
:1004E0002817390738F1209123013091240128176A
:1004F0003907C8F08091230190912401248135812E
:100500002817390780F04091270150912801609108
:100510002301709124010190F081E02D0190F08180
:10052000E02DC8010995D80116960D911C91011571
:10053000110579F680912301909124010296909300
:100540002401809323018091250190912601892B1C
:1005500009F0AACFD09222011CCF1092290121CFFD
:10056000789484B5826084BD84B5816084BD85B58E
:10057000826085BD85B5816085BD80916E0081609A
:1005800080936E0010928100809181008260809340
:100590008100809181008160809381008091800042
:1005A0008160809380008091B10084608093B1006D
:1005B0008091B00081608093B00080917A00846067
:1005C00080937A0080917A00826080937A00809193
:1005D0007A00816080937A0080917A0080688093AD
:1005E0007A001092C100809164008D7F8093640036
:1005F0001092C50083E08093C4001092C00086E092
:100600008093C20088E98093C10000E010E0C091AF
:100610007001D0917101209759F0E881F98104802F
:10062000F581E02DCE0109950E80DF81C02DF3CF3D
:100630000115110561F30E940000E9CF10926C01D1
:1006400010926D0110926E0110926F0110922201B2
:100650001092290184E091E0909315018093140198
:1006600088E094E790931701809316019093190105
:1006700080931801E0917001F0917101A0E7B1E061
:10068000309709F037C084E191E090937101809335
:10069000700110921B0110921A0110921E018EE03F
:1006A00091E0909315018093140180E092E0909383
:1006B000200180931F018DE080932101EDE9F0E09E
:1006C0002491E9E8F0E08491882399F090E0880F84
:1006D000991FFC01E859FF4FA591B491FC01EE5818
:1006E000FF4F859194918FB7F894EC91E22BEC93A6
:1006F0008FBF089584819581883024E7920740F068
:100700008830944761F4828193818830944738F42B
:10071000DF0116960680F781E02D309759F7F093A8
:100720001B01E0931A0184E191E08D939C93B5CF76
:10073000EE0FFF1F0590F491E02D0994F894FFCF80
:1007400000000000FA00F900F90000000000EA00D3
:04075000F900D300D9
:00000001FF
